{
  "contractName": "Voting",
  "abi": [
    {
      "anonymous": false,
      "inputs": [
        {
          "indexed": true,
          "internalType": "address",
          "name": "previousOwner",
          "type": "address"
        },
        {
          "indexed": true,
          "internalType": "address",
          "name": "newOwner",
          "type": "address"
        }
      ],
      "name": "OwnershipTransferred",
      "type": "event"
    },
    {
      "anonymous": false,
      "inputs": [
        {
          "indexed": false,
          "internalType": "uint256",
          "name": "proposalId",
          "type": "uint256"
        }
      ],
      "name": "ProposalRegistered",
      "type": "event"
    },
    {
      "anonymous": false,
      "inputs": [
        {
          "indexed": false,
          "internalType": "address",
          "name": "voter",
          "type": "address"
        },
        {
          "indexed": false,
          "internalType": "uint256",
          "name": "proposalId",
          "type": "uint256"
        }
      ],
      "name": "Voted",
      "type": "event"
    },
    {
      "anonymous": false,
      "inputs": [
        {
          "indexed": false,
          "internalType": "address",
          "name": "voterAddress",
          "type": "address"
        }
      ],
      "name": "VoterRegistered",
      "type": "event"
    },
    {
      "anonymous": false,
      "inputs": [
        {
          "indexed": false,
          "internalType": "enum Voting.WorkflowStatus",
          "name": "previousStatus",
          "type": "uint8"
        },
        {
          "indexed": false,
          "internalType": "enum Voting.WorkflowStatus",
          "name": "newStatus",
          "type": "uint8"
        }
      ],
      "name": "WorkflowStatusChange",
      "type": "event"
    },
    {
      "inputs": [],
      "name": "owner",
      "outputs": [
        {
          "internalType": "address",
          "name": "",
          "type": "address"
        }
      ],
      "stateMutability": "view",
      "type": "function",
      "constant": true
    },
    {
      "inputs": [],
      "name": "renounceOwnership",
      "outputs": [],
      "stateMutability": "nonpayable",
      "type": "function"
    },
    {
      "inputs": [
        {
          "internalType": "address",
          "name": "newOwner",
          "type": "address"
        }
      ],
      "name": "transferOwnership",
      "outputs": [],
      "stateMutability": "nonpayable",
      "type": "function"
    },
    {
      "inputs": [
        {
          "internalType": "address",
          "name": "",
          "type": "address"
        }
      ],
      "name": "voters",
      "outputs": [
        {
          "internalType": "bool",
          "name": "isRegistered",
          "type": "bool"
        },
        {
          "internalType": "bool",
          "name": "hasVoted",
          "type": "bool"
        },
        {
          "internalType": "uint256",
          "name": "votedProposalId",
          "type": "uint256"
        }
      ],
      "stateMutability": "view",
      "type": "function",
      "constant": true
    },
    {
      "inputs": [],
      "name": "winningProposalID",
      "outputs": [
        {
          "internalType": "uint256",
          "name": "",
          "type": "uint256"
        }
      ],
      "stateMutability": "view",
      "type": "function",
      "constant": true
    },
    {
      "inputs": [],
      "name": "workflowStatus",
      "outputs": [
        {
          "internalType": "enum Voting.WorkflowStatus",
          "name": "",
          "type": "uint8"
        }
      ],
      "stateMutability": "view",
      "type": "function",
      "constant": true
    },
    {
      "inputs": [
        {
          "internalType": "address",
          "name": "_addr",
          "type": "address"
        }
      ],
      "name": "getVoter",
      "outputs": [
        {
          "components": [
            {
              "internalType": "bool",
              "name": "isRegistered",
              "type": "bool"
            },
            {
              "internalType": "bool",
              "name": "hasVoted",
              "type": "bool"
            },
            {
              "internalType": "uint256",
              "name": "votedProposalId",
              "type": "uint256"
            }
          ],
          "internalType": "struct Voting.Voter",
          "name": "",
          "type": "tuple"
        }
      ],
      "stateMutability": "view",
      "type": "function",
      "constant": true
    },
    {
      "inputs": [
        {
          "internalType": "uint256",
          "name": "_id",
          "type": "uint256"
        }
      ],
      "name": "getOneProposal",
      "outputs": [
        {
          "components": [
            {
              "internalType": "string",
              "name": "description",
              "type": "string"
            },
            {
              "internalType": "uint256",
              "name": "voteCount",
              "type": "uint256"
            }
          ],
          "internalType": "struct Voting.Proposal",
          "name": "",
          "type": "tuple"
        }
      ],
      "stateMutability": "view",
      "type": "function",
      "constant": true
    },
    {
      "inputs": [
        {
          "internalType": "address",
          "name": "_addr",
          "type": "address"
        }
      ],
      "name": "addVoter",
      "outputs": [],
      "stateMutability": "nonpayable",
      "type": "function"
    },
    {
      "inputs": [
        {
          "internalType": "string",
          "name": "_desc",
          "type": "string"
        }
      ],
      "name": "addProposal",
      "outputs": [],
      "stateMutability": "nonpayable",
      "type": "function"
    },
    {
      "inputs": [
        {
          "internalType": "uint256",
          "name": "_id",
          "type": "uint256"
        }
      ],
      "name": "setVote",
      "outputs": [],
      "stateMutability": "nonpayable",
      "type": "function"
    },
    {
      "inputs": [],
      "name": "startProposalsRegistering",
      "outputs": [],
      "stateMutability": "nonpayable",
      "type": "function"
    },
    {
      "inputs": [],
      "name": "endProposalsRegistering",
      "outputs": [],
      "stateMutability": "nonpayable",
      "type": "function"
    },
    {
      "inputs": [],
      "name": "startVotingSession",
      "outputs": [],
      "stateMutability": "nonpayable",
      "type": "function"
    },
    {
      "inputs": [],
      "name": "endVotingSession",
      "outputs": [],
      "stateMutability": "nonpayable",
      "type": "function"
    },
    {
      "inputs": [],
      "name": "tallyVotes",
      "outputs": [],
      "stateMutability": "nonpayable",
      "type": "function"
    }
  ],
  "bytecode": "0x60806040523480156200001157600080fd5b5062000032620000266200003860201b60201c565b6200004060201b60201c565b62000104565b600033905090565b60008060009054906101000a900473ffffffffffffffffffffffffffffffffffffffff169050816000806101000a81548173ffffffffffffffffffffffffffffffffffffffff021916908373ffffffffffffffffffffffffffffffffffffffff1602179055508173ffffffffffffffffffffffffffffffffffffffff168173ffffffffffffffffffffffffffffffffffffffff167f8be0079c531659141344cd1fd0a4f28419497f9722a3daafe3b4186f6b6457e060405160405180910390a35050565b6124cb80620001146000396000f3fe608060405234801561001057600080fd5b50600436106101005760003560e01c8063a7bfab1611610097578063d4f50f9811610066578063d4f50f981461022b578063ee74c6781461025b578063f2fde38b14610265578063f4ab9adf1461028157610100565b8063a7bfab16146101ef578063bdc01431146101f9578063c7038a4e14610217578063c88af42f1461022157610100565b80638da5cb5b116100d35780638da5cb5b14610151578063a1edffa21461016f578063a2788cce1461018d578063a3ec138d146101bd57610100565b8063230796ae146101055780632fdae3c514610121578063378a21781461013d578063715018a614610147575b600080fd5b61011f600480360381019061011a91906114a7565b61029d565b005b61013b60048036038101906101369190611539565b6105f4565b005b610145610877565b005b61014f61095d565b005b610159610971565b60405161016691906115c7565b60405180910390f35b61017761099a565b6040516101849190611659565b60405180910390f35b6101a760048036038101906101a291906114a7565b6109ad565b6040516101b49190611750565b60405180910390f35b6101d760048036038101906101d2919061179e565b610b14565b6040516101e6939291906117f5565b60405180910390f35b6101f7610b58565b005b610201610c3e565b60405161020e919061182c565b60405180910390f35b61021f610c44565b005b610229610dbf565b005b6102456004803603810190610240919061179e565b610ea4565b6040516102529190611898565b60405180910390f35b610263610fcc565b005b61027f600480360381019061027a919061179e565b6110b2565b005b61029b6004803603810190610296919061179e565b611135565b005b600460003373ffffffffffffffffffffffffffffffffffffffff1673ffffffffffffffffffffffffffffffffffffffff16815260200190815260200160002060000160009054906101000a900460ff1661032c576040517f08c379a000000000000000000000000000000000000000000000000000000000815260040161032390611910565b60405180910390fd5b600360058111156103405761033f6115e2565b5b600260009054906101000a900460ff166005811115610362576103616115e2565b5b146103a2576040517f08c379a0000000000000000000000000000000000000000000000000000000008152600401610399906119a2565b60405180910390fd5b60011515600460003373ffffffffffffffffffffffffffffffffffffffff1673ffffffffffffffffffffffffffffffffffffffff16815260200190815260200160002060000160019054906101000a900460ff16151503610438576040517f08c379a000000000000000000000000000000000000000000000000000000000815260040161042f90611a0e565b60405180910390fd5b600380549050811061047f576040517f08c379a000000000000000000000000000000000000000000000000000000000815260040161047690611a7a565b60405180910390fd5b80600460003373ffffffffffffffffffffffffffffffffffffffff1673ffffffffffffffffffffffffffffffffffffffff168152602001908152602001600020600101819055506001600460003373ffffffffffffffffffffffffffffffffffffffff1673ffffffffffffffffffffffffffffffffffffffff16815260200190815260200160002060000160016101000a81548160ff0219169083151502179055506003818154811061053557610534611a9a565b5b9060005260206000209060020201600101600081548092919061055790611af8565b919050555060036001548154811061057257610571611a9a565b5b9060005260206000209060020201600101546003828154811061059857610597611a9a565b5b90600052602060002090600202016001015411156105b857806001819055505b7f4d99b957a2bc29a30ebd96a7be8e68fe50a3c701db28a91436490b7d53870ca433826040516105e9929190611b40565b60405180910390a150565b600460003373ffffffffffffffffffffffffffffffffffffffff1673ffffffffffffffffffffffffffffffffffffffff16815260200190815260200160002060000160009054906101000a900460ff16610683576040517f08c379a000000000000000000000000000000000000000000000000000000000815260040161067a90611910565b60405180910390fd5b60016005811115610697576106966115e2565b5b600260009054906101000a900460ff1660058111156106b9576106b86115e2565b5b146106f9576040517f08c379a00000000000000000000000000000000000000000000000000000000081526004016106f090611bb5565b60405180910390fd5b60405160200161070890611bfb565b604051602081830303815290604052805190602001208282604051602001610731929190611c57565b6040516020818303038152906040528051906020012003610787576040517f08c379a000000000000000000000000000000000000000000000000000000000815260040161077e90611cc7565b60405180910390fd5b61078f611428565b82828080601f016020809104026020016040519081016040528093929190818152602001838380828437600081840152601f19601f8201169050808301925050505050505081600001819052506003819080600181540180825580915050600190039060005260206000209060020201600090919091909150600082015181600001908161081d9190611f22565b506020820151816001015550507f92e393e9b54e2f801d3ea4beb0c5e71a21cc34a5d34b77d0fb8a3aa1650dc18f600160038054905061085d9190611ff4565b60405161086a919061182c565b60405180910390a1505050565b61087f6112de565b60046005811115610893576108926115e2565b5b600260009054906101000a900460ff1660058111156108b5576108b46115e2565b5b146108f5576040517f08c379a00000000000000000000000000000000000000000000000000000000081526004016108ec9061209a565b60405180910390fd5b6005600260006101000a81548160ff0219169083600581111561091b5761091a6115e2565b5b02179055507f0a97a4ee45751e2abf3e4fc8946939630b11b371ea8ae39ccdc3056e98f5cc3f600460056040516109539291906120ba565b60405180910390a1565b6109656112de565b61096f600061135c565b565b60008060009054906101000a900473ffffffffffffffffffffffffffffffffffffffff16905090565b600260009054906101000a900460ff1681565b6109b5611428565b600460003373ffffffffffffffffffffffffffffffffffffffff1673ffffffffffffffffffffffffffffffffffffffff16815260200190815260200160002060000160009054906101000a900460ff16610a44576040517f08c379a0000000000000000000000000000000000000000000000000000000008152600401610a3b90611910565b60405180910390fd5b60038281548110610a5857610a57611a9a565b5b9060005260206000209060020201604051806040016040529081600082018054610a8190611d45565b80601f0160208091040260200160405190810160405280929190818152602001828054610aad90611d45565b8015610afa5780601f10610acf57610100808354040283529160200191610afa565b820191906000526020600020905b815481529060010190602001808311610add57829003601f168201915b505050505081526020016001820154815250509050919050565b60046020528060005260406000206000915090508060000160009054906101000a900460ff16908060000160019054906101000a900460ff16908060010154905083565b610b606112de565b60036005811115610b7457610b736115e2565b5b600260009054906101000a900460ff166005811115610b9657610b956115e2565b5b14610bd6576040517f08c379a0000000000000000000000000000000000000000000000000000000008152600401610bcd906119a2565b60405180910390fd5b6004600260006101000a81548160ff02191690836005811115610bfc57610bfb6115e2565b5b02179055507f0a97a4ee45751e2abf3e4fc8946939630b11b371ea8ae39ccdc3056e98f5cc3f60036004604051610c349291906120ba565b60405180910390a1565b60015481565b610c4c6112de565b60006005811115610c6057610c5f6115e2565b5b600260009054906101000a900460ff166005811115610c8257610c816115e2565b5b14610cc2576040517f08c379a0000000000000000000000000000000000000000000000000000000008152600401610cb990612155565b60405180910390fd5b6001600260006101000a81548160ff02191690836005811115610ce857610ce76115e2565b5b0217905550610cf5611428565b6040518060400160405280600781526020017f47454e4553495300000000000000000000000000000000000000000000000000815250816000018190525060038190806001815401808255809150506001900390600052602060002090600202016000909190919091506000820151816000019081610d749190611f22565b506020820151816001015550507f0a97a4ee45751e2abf3e4fc8946939630b11b371ea8ae39ccdc3056e98f5cc3f60006001604051610db49291906120ba565b60405180910390a150565b610dc76112de565b60016005811115610ddb57610dda6115e2565b5b600260009054906101000a900460ff166005811115610dfd57610dfc6115e2565b5b14610e3d576040517f08c379a0000000000000000000000000000000000000000000000000000000008152600401610e34906121e7565b60405180910390fd5b60028060006101000a81548160ff02191690836005811115610e6257610e616115e2565b5b02179055507f0a97a4ee45751e2abf3e4fc8946939630b11b371ea8ae39ccdc3056e98f5cc3f60016002604051610e9a9291906120ba565b60405180910390a1565b610eac611442565b600460003373ffffffffffffffffffffffffffffffffffffffff1673ffffffffffffffffffffffffffffffffffffffff16815260200190815260200160002060000160009054906101000a900460ff16610f3b576040517f08c379a0000000000000000000000000000000000000000000000000000000008152600401610f3290611910565b60405180910390fd5b600460008373ffffffffffffffffffffffffffffffffffffffff1673ffffffffffffffffffffffffffffffffffffffff1681526020019081526020016000206040518060600160405290816000820160009054906101000a900460ff161515151581526020016000820160019054906101000a900460ff161515151581526020016001820154815250509050919050565b610fd46112de565b60026005811115610fe857610fe76115e2565b5b600260009054906101000a900460ff16600581111561100a576110096115e2565b5b1461104a576040517f08c379a000000000000000000000000000000000000000000000000000000000815260040161104190612279565b60405180910390fd5b6003600260006101000a81548160ff021916908360058111156110705761106f6115e2565b5b02179055507f0a97a4ee45751e2abf3e4fc8946939630b11b371ea8ae39ccdc3056e98f5cc3f600260036040516110a89291906120ba565b60405180910390a1565b6110ba6112de565b600073ffffffffffffffffffffffffffffffffffffffff168173ffffffffffffffffffffffffffffffffffffffff1603611129576040517f08c379a00000000000000000000000000000000000000000000000000000000081526004016111209061230b565b60405180910390fd5b6111328161135c565b50565b61113d6112de565b60006005811115611151576111506115e2565b5b600260009054906101000a900460ff166005811115611173576111726115e2565b5b146111b3576040517f08c379a00000000000000000000000000000000000000000000000000000000081526004016111aa9061239d565b60405180910390fd5b60011515600460008373ffffffffffffffffffffffffffffffffffffffff1673ffffffffffffffffffffffffffffffffffffffff16815260200190815260200160002060000160009054906101000a900460ff16151503611249576040517f08c379a000000000000000000000000000000000000000000000000000000000815260040161124090612409565b60405180910390fd5b6001600460008373ffffffffffffffffffffffffffffffffffffffff1673ffffffffffffffffffffffffffffffffffffffff16815260200190815260200160002060000160006101000a81548160ff0219169083151502179055507fb6be2187d059cc2a55fe29e0e503b566e1e0f8c8780096e185429350acffd3dd816040516112d391906115c7565b60405180910390a150565b6112e6611420565b73ffffffffffffffffffffffffffffffffffffffff16611304610971565b73ffffffffffffffffffffffffffffffffffffffff161461135a576040517f08c379a000000000000000000000000000000000000000000000000000000000815260040161135190612475565b60405180910390fd5b565b60008060009054906101000a900473ffffffffffffffffffffffffffffffffffffffff169050816000806101000a81548173ffffffffffffffffffffffffffffffffffffffff021916908373ffffffffffffffffffffffffffffffffffffffff1602179055508173ffffffffffffffffffffffffffffffffffffffff168173ffffffffffffffffffffffffffffffffffffffff167f8be0079c531659141344cd1fd0a4f28419497f9722a3daafe3b4186f6b6457e060405160405180910390a35050565b600033905090565b604051806040016040528060608152602001600081525090565b6040518060600160405280600015158152602001600015158152602001600081525090565b600080fd5b600080fd5b6000819050919050565b61148481611471565b811461148f57600080fd5b50565b6000813590506114a18161147b565b92915050565b6000602082840312156114bd576114bc611467565b5b60006114cb84828501611492565b91505092915050565b600080fd5b600080fd5b600080fd5b60008083601f8401126114f9576114f86114d4565b5b8235905067ffffffffffffffff811115611516576115156114d9565b5b602083019150836001820283011115611532576115316114de565b5b9250929050565b600080602083850312156115505761154f611467565b5b600083013567ffffffffffffffff81111561156e5761156d61146c565b5b61157a858286016114e3565b92509250509250929050565b600073ffffffffffffffffffffffffffffffffffffffff82169050919050565b60006115b182611586565b9050919050565b6115c1816115a6565b82525050565b60006020820190506115dc60008301846115b8565b92915050565b7f4e487b7100000000000000000000000000000000000000000000000000000000600052602160045260246000fd5b60068110611622576116216115e2565b5b50565b600081905061163382611611565b919050565b600061164382611625565b9050919050565b61165381611638565b82525050565b600060208201905061166e600083018461164a565b92915050565b600081519050919050565b600082825260208201905092915050565b60005b838110156116ae578082015181840152602081019050611693565b60008484015250505050565b6000601f19601f8301169050919050565b60006116d682611674565b6116e0818561167f565b93506116f0818560208601611690565b6116f9816116ba565b840191505092915050565b61170d81611471565b82525050565b6000604083016000830151848203600086015261173082826116cb565b91505060208301516117456020860182611704565b508091505092915050565b6000602082019050818103600083015261176a8184611713565b905092915050565b61177b816115a6565b811461178657600080fd5b50565b60008135905061179881611772565b92915050565b6000602082840312156117b4576117b3611467565b5b60006117c284828501611789565b91505092915050565b60008115159050919050565b6117e0816117cb565b82525050565b6117ef81611471565b82525050565b600060608201905061180a60008301866117d7565b61181760208301856117d7565b61182460408301846117e6565b949350505050565b600060208201905061184160008301846117e6565b92915050565b611850816117cb565b82525050565b60608201600082015161186c6000850182611847565b50602082015161187f6020850182611847565b5060408201516118926040850182611704565b50505050565b60006060820190506118ad6000830184611856565b92915050565b600082825260208201905092915050565b7f596f75277265206e6f74206120766f7465720000000000000000000000000000600082015250565b60006118fa6012836118b3565b9150611905826118c4565b602082019050919050565b60006020820190508181036000830152611929816118ed565b9050919050565b7f566f74696e672073657373696f6e20686176656e74207374617274656420796560008201527f7400000000000000000000000000000000000000000000000000000000000000602082015250565b600061198c6021836118b3565b915061199782611930565b604082019050919050565b600060208201905081810360008301526119bb8161197f565b9050919050565b7f596f75206861766520616c726561647920766f74656400000000000000000000600082015250565b60006119f86016836118b3565b9150611a03826119c2565b602082019050919050565b60006020820190508181036000830152611a27816119eb565b9050919050565b7f50726f706f73616c206e6f7420666f756e640000000000000000000000000000600082015250565b6000611a646012836118b3565b9150611a6f82611a2e565b602082019050919050565b60006020820190508181036000830152611a9381611a57565b9050919050565b7f4e487b7100000000000000000000000000000000000000000000000000000000600052603260045260246000fd5b7f4e487b7100000000000000000000000000000000000000000000000000000000600052601160045260246000fd5b6000611b0382611471565b91507fffffffffffffffffffffffffffffffffffffffffffffffffffffffffffffffff8203611b3557611b34611ac9565b5b600182019050919050565b6000604082019050611b5560008301856115b8565b611b6260208301846117e6565b9392505050565b7f50726f706f73616c7320617265206e6f7420616c6c6f77656420796574000000600082015250565b6000611b9f601d836118b3565b9150611baa82611b69565b602082019050919050565b60006020820190508181036000830152611bce81611b92565b9050919050565b50565b6000611be56000836118b3565b9150611bf082611bd5565b600082019050919050565b60006020820190508181036000830152611c1481611bd8565b9050919050565b82818337600083830152505050565b6000611c3683856118b3565b9350611c43838584611c1b565b611c4c836116ba565b840190509392505050565b60006020820190508181036000830152611c72818486611c2a565b90509392505050565b7f4e6f20656d7074792070726f706f73616c000000000000000000000000000000600082015250565b6000611cb16011836118b3565b9150611cbc82611c7b565b602082019050919050565b60006020820190508181036000830152611ce081611ca4565b9050919050565b7f4e487b7100000000000000000000000000000000000000000000000000000000600052604160045260246000fd5b7f4e487b7100000000000000000000000000000000000000000000000000000000600052602260045260246000fd5b60006002820490506001821680611d5d57607f821691505b602082108103611d7057611d6f611d16565b5b50919050565b60008190508160005260206000209050919050565b60006020601f8301049050919050565b600082821b905092915050565b600060088302611dd87fffffffffffffffffffffffffffffffffffffffffffffffffffffffffffffffff82611d9b565b611de28683611d9b565b95508019841693508086168417925050509392505050565b6000819050919050565b6000611e1f611e1a611e1584611471565b611dfa565b611471565b9050919050565b6000819050919050565b611e3983611e04565b611e4d611e4582611e26565b848454611da8565b825550505050565b600090565b611e62611e55565b611e6d818484611e30565b505050565b5b81811015611e9157611e86600082611e5a565b600181019050611e73565b5050565b601f821115611ed657611ea781611d76565b611eb084611d8b565b81016020851015611ebf578190505b611ed3611ecb85611d8b565b830182611e72565b50505b505050565b600082821c905092915050565b6000611ef960001984600802611edb565b1980831691505092915050565b6000611f128383611ee8565b9150826002028217905092915050565b611f2b82611674565b67ffffffffffffffff811115611f4457611f43611ce7565b5b611f4e8254611d45565b611f59828285611e95565b600060209050601f831160018114611f8c5760008415611f7a578287015190505b611f848582611f06565b865550611fec565b601f198416611f9a86611d76565b60005b82811015611fc257848901518255600182019150602085019450602081019050611f9d565b86831015611fdf5784890151611fdb601f891682611ee8565b8355505b6001600288020188555050505b505050505050565b6000611fff82611471565b915061200a83611471565b925082820390508181111561202257612021611ac9565b5b92915050565b7f43757272656e7420737461747573206973206e6f7420766f74696e672073657360008201527f73696f6e20656e64656400000000000000000000000000000000000000000000602082015250565b6000612084602a836118b3565b915061208f82612028565b604082019050919050565b600060208201905081810360008301526120b381612077565b9050919050565b60006040820190506120cf600083018561164a565b6120dc602083018461164a565b9392505050565b7f5265676973746572696e672070726f706f73616c732063616e7420626520737460008201527f6172746564206e6f770000000000000000000000000000000000000000000000602082015250565b600061213f6029836118b3565b915061214a826120e3565b604082019050919050565b6000602082019050818103600083015261216e81612132565b9050919050565b7f5265676973746572696e672070726f706f73616c7320686176656e742073746160008201527f7274656420796574000000000000000000000000000000000000000000000000602082015250565b60006121d16028836118b3565b91506121dc82612175565b604082019050919050565b60006020820190508181036000830152612200816121c4565b9050919050565b7f5265676973746572696e672070726f706f73616c73207068617365206973206e60008201527f6f742066696e6973686564000000000000000000000000000000000000000000602082015250565b6000612263602b836118b3565b915061226e82612207565b604082019050919050565b6000602082019050818103600083015261229281612256565b9050919050565b7f4f776e61626c653a206e6577206f776e657220697320746865207a65726f206160008201527f6464726573730000000000000000000000000000000000000000000000000000602082015250565b60006122f56026836118b3565b915061230082612299565b604082019050919050565b60006020820190508181036000830152612324816122e8565b9050919050565b7f566f7465727320726567697374726174696f6e206973206e6f74206f70656e2060008201527f7965740000000000000000000000000000000000000000000000000000000000602082015250565b60006123876023836118b3565b91506123928261232b565b604082019050919050565b600060208201905081810360008301526123b68161237a565b9050919050565b7f416c726561647920726567697374657265640000000000000000000000000000600082015250565b60006123f36012836118b3565b91506123fe826123bd565b602082019050919050565b60006020820190508181036000830152612422816123e6565b9050919050565b7f4f776e61626c653a2063616c6c6572206973206e6f7420746865206f776e6572600082015250565b600061245f6020836118b3565b915061246a82612429565b602082019050919050565b6000602082019050818103600083015261248e81612452565b905091905056fea2646970667358221220a54dd462133673e35dde99e9c84927d868bd5d5d2adeff6baefac9383a19f66864736f6c63430008120033",
  "immutableReferences": {},
  "source": "// SPDX-License-Identifier: MIT\n\npragma solidity 0.8.18;\nimport \"../node_modules/@openzeppelin/contracts/access/Ownable.sol\";\n\n/**\n * @title Voting\n * @author Cyril Castagnet\n * @notice A simple voting contract with 4 main steps (registring voters, proposal registring, voting session and votes tallying)\n * @dev A simple voting contract\n */\ncontract Voting is Ownable {\n\n    /// State variable to record the winning proposal\n    uint public winningProposalID;\n    \n    /**\n    * @dev A complex type that represent a single voter with three params (bool isRegistered, bool hasVoted, uint votedProposalId)\n    */\n    struct Voter {\n        bool isRegistered;\n        bool hasVoted;\n        uint votedProposalId;\n    }\n\n    /**\n    * @dev A complex type that represent a single proposal with two params (string description, uint voteCount)\n    */\n    struct Proposal {\n        string description;\n        uint voteCount;\n    }\n\n    /**\n    * @dev A variable with predefined values that represents the status of the workflow\n    */\n    enum  WorkflowStatus {\n        RegisteringVoters,\n        ProposalsRegistrationStarted,\n        ProposalsRegistrationEnded,\n        VotingSessionStarted,\n        VotingSessionEnded,\n        VotesTallied\n    }\n\n    /// @dev A state variable of type WorkflowStatus that stores the workflow status\n    WorkflowStatus public workflowStatus;\n    /// @dev A dynamic size array storing Proposal structs\n    Proposal[] proposalsArray;\n    /// @dev A state variable that stores a Voter struct for each address\n    mapping (address => Voter) public voters;\n\n    /// @dev An event that registers the voter address\n    event VoterRegistered(address voterAddress);\n    /// @dev An event that registers the current workflow status and the next when the status changes\n    event WorkflowStatusChange(WorkflowStatus previousStatus, WorkflowStatus newStatus);\n    /// @dev An event that registers the proposal id\n    event ProposalRegistered(uint proposalId);\n    /// @dev An event that registers the voter address and the proposal id he voted for\n    event Voted (address voter, uint proposalId);\n    \n    /// A modifier of type control that checks that voter is registred in the voters array\n    modifier onlyVoters() {\n        require(voters[msg.sender].isRegistered, \"You're not a voter\");\n        _;\n    }\n\n    // ::::::::::::: GETTERS ::::::::::::: //\n    /**\n     * @dev Get a voter informations\n     * @param _addr The address of the voter \n     * @return A matching address voter struct  \n     */\n    function getVoter(address _addr) external onlyVoters view returns (Voter memory) {\n        return voters[_addr];\n    }\n    \n     /**\n     * @dev Get a voter informations\n     * @param _id The address of the voter \n     * @return A matching address voter struct  \n     */\n    function getOneProposal(uint _id) external onlyVoters view returns (Proposal memory) {\n        return proposalsArray[_id];\n    }\n\n \n    // ::::::::::::: REGISTRATION ::::::::::::: // \n\n    /**\n     * @dev Add a voter to the voter mapping\n     * @dev Only the owner of the contract can use this function\n     * @dev The workflowstatus must be at registring voters step\n     * @dev The voter must not be registred\n     * @dev winning proposal is calculated each time a proposal is selected\n     * @param _addr The address of the voter \n     */\n    function addVoter(address _addr) external onlyOwner {\n        require(workflowStatus == WorkflowStatus.RegisteringVoters, 'Voters registration is not open yet');\n        require(voters[_addr].isRegistered != true, 'Already registered');\n    \n        voters[_addr].isRegistered = true;\n        emit VoterRegistered(_addr);\n    }\n \n    // ::::::::::::: PROPOSAL ::::::::::::: // \n\n    /**\n     * @dev Add a proposal to the proposal array\n     * @dev Only voters regitred can use this function\n     * @dev The workflowstatus must be at proposal registering started step\n     * @dev The proposal can't be an ampty string\n     * @param _desc The proposal \n     */\n    function addProposal(string calldata _desc) external onlyVoters {\n        require(workflowStatus == WorkflowStatus.ProposalsRegistrationStarted, 'Proposals are not allowed yet');\n        require(keccak256(abi.encode(_desc)) != keccak256(abi.encode(\"\")), 'No empty proposal');\n        // voir que desc est different des autres\n\n        Proposal memory proposal;\n        proposal.description = _desc;\n        proposalsArray.push(proposal);\n        emit ProposalRegistered(proposalsArray.length-1);\n    }\n\n    // ::::::::::::: VOTE ::::::::::::: //\n\n     /**\n     * @dev Set a proposal for the msg.sender\n     * @dev Only voters registred can use this function\n     * @dev The workflowstatus must be at voting session started step\n     * @dev The msg.sender must not have already voted\n     * @dev The proposal must have been registred\n     * @param _id The id of the proposal \n     */\n    function setVote( uint _id) external onlyVoters {\n        require(workflowStatus == WorkflowStatus.VotingSessionStarted, 'Voting session havent started yet');\n        require(voters[msg.sender].hasVoted != true, 'You have already voted');\n        require(_id < proposalsArray.length, 'Proposal not found');\n\n        voters[msg.sender].votedProposalId = _id;\n        voters[msg.sender].hasVoted = true;\n        proposalsArray[_id].voteCount++;\n\n        if (proposalsArray[_id].voteCount > proposalsArray[winningProposalID].voteCount) {\n            winningProposalID = _id;\n        }\n\n        emit Voted(msg.sender, _id);\n    }\n\n    // ::::::::::::: STATE ::::::::::::: //\n\n    /**\n     * @dev Start proposal registring step\n     * @dev Only the owner of the contract can use this function\n     * @dev The workflowStatus must be at registring voter step\n     * @dev The proposal array is initiated with a zero index proposition called GENESIS\n     */\n    function startProposalsRegistering() external onlyOwner {\n        require(workflowStatus == WorkflowStatus.RegisteringVoters, 'Registering proposals cant be started now');\n        workflowStatus = WorkflowStatus.ProposalsRegistrationStarted;\n        \n        Proposal memory proposal;\n        proposal.description = \"GENESIS\";\n        proposalsArray.push(proposal);\n        \n        emit WorkflowStatusChange(WorkflowStatus.RegisteringVoters, WorkflowStatus.ProposalsRegistrationStarted);\n    }\n\n    /**\n     * @dev End proposal registring step\n     * @dev Only the owner of the contract can use this function\n     * @dev The workflowStatus must be at proposal registration started step\n     */\n    function endProposalsRegistering() external onlyOwner {\n        require(workflowStatus == WorkflowStatus.ProposalsRegistrationStarted, 'Registering proposals havent started yet');\n        workflowStatus = WorkflowStatus.ProposalsRegistrationEnded;\n        emit WorkflowStatusChange(WorkflowStatus.ProposalsRegistrationStarted, WorkflowStatus.ProposalsRegistrationEnded);\n    }\n\n     /**\n     * @dev Start voting session step\n     * @dev Only the owner of the contract can use this function\n     * @dev The workflowStatus must be at proposal registration ended step\n     */\n    function startVotingSession() external onlyOwner {\n        require(workflowStatus == WorkflowStatus.ProposalsRegistrationEnded, 'Registering proposals phase is not finished');\n        workflowStatus = WorkflowStatus.VotingSessionStarted;\n        emit WorkflowStatusChange(WorkflowStatus.ProposalsRegistrationEnded, WorkflowStatus.VotingSessionStarted);\n    }\n\n    /**\n     * @dev End voting session step\n     * @dev Only the owner of the contract can use this function\n     * @dev The workflowStatus must be at voting session started step\n     */\n    function endVotingSession() external onlyOwner {\n        require(workflowStatus == WorkflowStatus.VotingSessionStarted, 'Voting session havent started yet');\n        workflowStatus = WorkflowStatus.VotingSessionEnded;\n        emit WorkflowStatusChange(WorkflowStatus.VotingSessionStarted, WorkflowStatus.VotingSessionEnded);\n    }\n\n    /**\n     * @dev Tally votes\n     * @dev Only the owner of the contract can use this function\n     * @dev The workflowStatus must be at voting session ended step\n     * @dev The workflow changes to votes tallied\n     */\n    function tallyVotes() external onlyOwner {\n       require(workflowStatus == WorkflowStatus.VotingSessionEnded, \"Current status is not voting session ended\");\n\n       workflowStatus = WorkflowStatus.VotesTallied;\n       emit WorkflowStatusChange(WorkflowStatus.VotingSessionEnded, WorkflowStatus.VotesTallied);\n    }\n}",
  "sourcePath": "/home/fab/COURSALYRA/VotingDapp/truffle/contracts/Voting.sol",
  "compiler": {
    "name": "solc",
    "version": "0.8.18+commit.87f61d96.Emscripten.clang"
  },
  "schemaVersion": "3.4.11",
  "updatedAt": "2023-03-14T10:22:39.123Z",
  "networkType": "ethereum",
  "devdoc": {
    "author": "Cyril Castagnet",
    "details": "A simple voting contract",
    "events": {
      "ProposalRegistered(uint256)": {
        "details": "An event that registers the proposal id"
      },
      "Voted(address,uint256)": {
        "details": "An event that registers the voter address and the proposal id he voted for"
      },
      "VoterRegistered(address)": {
        "details": "An event that registers the voter address"
      },
      "WorkflowStatusChange(uint8,uint8)": {
        "details": "An event that registers the current workflow status and the next when the status changes"
      }
    },
    "kind": "dev",
    "methods": {
      "addProposal(string)": {
        "details": "Add a proposal to the proposal arrayOnly voters regitred can use this functionThe workflowstatus must be at proposal registering started stepThe proposal can't be an ampty string",
        "params": {
          "_desc": "The proposal "
        }
      },
      "addVoter(address)": {
        "details": "Add a voter to the voter mappingOnly the owner of the contract can use this functionThe workflowstatus must be at registring voters stepThe voter must not be registredwinning proposal is calculated each time a proposal is selected",
        "params": {
          "_addr": "The address of the voter "
        }
      },
      "endProposalsRegistering()": {
        "details": "End proposal registring stepOnly the owner of the contract can use this functionThe workflowStatus must be at proposal registration started step"
      },
      "endVotingSession()": {
        "details": "End voting session stepOnly the owner of the contract can use this functionThe workflowStatus must be at voting session started step"
      },
      "getOneProposal(uint256)": {
        "details": "Get a voter informations",
        "params": {
          "_id": "The address of the voter "
        },
        "returns": {
          "_0": "A matching address voter struct  "
        }
      },
      "getVoter(address)": {
        "details": "Get a voter informations",
        "params": {
          "_addr": "The address of the voter "
        },
        "returns": {
          "_0": "A matching address voter struct  "
        }
      },
      "owner()": {
        "details": "Returns the address of the current owner."
      },
      "renounceOwnership()": {
        "details": "Leaves the contract without owner. It will not be possible to call `onlyOwner` functions anymore. Can only be called by the current owner. NOTE: Renouncing ownership will leave the contract without an owner, thereby removing any functionality that is only available to the owner."
      },
      "setVote(uint256)": {
        "details": "Set a proposal for the msg.senderOnly voters registred can use this functionThe workflowstatus must be at voting session started stepThe msg.sender must not have already votedThe proposal must have been registred",
        "params": {
          "_id": "The id of the proposal "
        }
      },
      "startProposalsRegistering()": {
        "details": "Start proposal registring stepOnly the owner of the contract can use this functionThe workflowStatus must be at registring voter stepThe proposal array is initiated with a zero index proposition called GENESIS"
      },
      "startVotingSession()": {
        "details": "Start voting session stepOnly the owner of the contract can use this functionThe workflowStatus must be at proposal registration ended step"
      },
      "tallyVotes()": {
        "details": "Tally votesOnly the owner of the contract can use this functionThe workflowStatus must be at voting session ended stepThe workflow changes to votes tallied"
      },
      "transferOwnership(address)": {
        "details": "Transfers ownership of the contract to a new account (`newOwner`). Can only be called by the current owner."
      }
    },
    "stateVariables": {
      "proposalsArray": {
        "details": "A dynamic size array storing Proposal structs"
      },
      "voters": {
        "details": "A state variable that stores a Voter struct for each address"
      },
      "workflowStatus": {
        "details": "A state variable of type WorkflowStatus that stores the workflow status"
      }
    },
    "title": "Voting",
    "version": 1
  },
  "userdoc": {
    "kind": "user",
    "methods": {
      "winningProposalID()": {
        "notice": "State variable to record the winning proposal"
      }
    },
    "notice": "A simple voting contract with 4 main steps (registring voters, proposal registring, voting session and votes tallying)",
    "version": 1
  }
}